:100000000C94D4000C94F1000C94F1000C94F100C9
:100010000C94F1000C94F1000C94F1000C94F1009C
:100020000C94F1000C94F1000C94F1000C94F1008C
:100030000C94F1000C94F1000C94F1000C94F1007C
:100040000C94F1000C94F1000C94F1000C94F1006C
:100050000C94F1000C94F1000C94F1000C94F1005C
:100060000C94F1000C94F1001304160419041C0400
:100070002504250425041F04250425042504220441
:100080002504250425041304F105FF050D061A06B1
:1000900029063B0655067D063D143D14C30DC30DD0
:1000A000BE0DBE0D691D691DB61FB61F5A205A2010
:1000B000D5218922890889089B089B08DE22DE2237
:1000C000DE22DE22D809D8096B096B09D809D809C4
:1000D0006B096B09CC0E430FDE22430FDE222B107F
:1000E000DE227111AF11AF11AF11AF11AF11AF110E
:1000F000AF11AF117E17A717D01719186818B118CC
:100100000E196A19C519F519251A731AC11A201B77
:10011000EA1A191B0C26F1297226AE26F627282882
:100120005A288C28CC28E628FC285D298929F12921
:10013000AF293D2E432EE62E022F6C2F112F1E2F9E
:100140002B2F322F582F582F6C2F6C2F6C2F6C2F7A
:10015000382FA739B239D839093A163A983A983A25
:100160001A3A1F3A343A613A6A3A823A6E3A723A25
:10017000763A7A3A7E3A01008FE210FF2FE10427A7
:100180000120002100F00DF80A242407651C052732
:10019000002200F006F82060241D491C8029F8D1B7
:1001A0002847BC46BBBB704711241FBECFEFD8E029
:1001B000DEBFCDBF12E0A0E0B1E0E4E4F9E702C0A9
:1001C00005900D92A43FB107D9F727E0A4EFB2E064
:1001D00001C01D92A93CB207E1F70E9401030C94F3
:1001E000A03C0C94000040910001442309F420C07D
:1001F00095B1987278E060E258E095B987FD73B9DF
:1002000063B9880F1C9983955A9563B9B1F708951E
:10021000CF93DF931F92CDB7DEB7198289818F5FAD
:1002200089838981815089830F90DF91CF910895CF
:10023000CF93DF93C82FD8E0C7FF02C02B9A01C02D
:100240002B980E9408012D9A0E940801CC0F1C993E
:10025000CF5F2D980E940801D15071F72B988C2FF9
:10026000DF91CF910895282FFC0139E08E2F821B5A
:10027000861758F4919188E0440F542F592757FD61
:100280004327990F8150C1F7F1CF842F8F770895BD
:10029000CF93DF9300D000D000D0CDB7DEB780641D
:1002A00089837A836B835C834D83222349F040E00A
:1002B00065E0CE0101960E943301880F816001C084
:1002C00080E08E8310E0E1E0F0E0EC0FFD1FE10F35
:1002D000F11D80810E94F3001F5FF5CFFC01948126
:1002E0009D7F9B7F948310920001CAE08FEF0E9454
:1002F000F300C150D9F70E9408012B9A0E9408010F
:100300002D9A0E9408012D980E94080121E040E0EA
:1003100050E0BA0180E00E944801FC01248121FFE5
:1003200005C06081718182819381089560E070E0F1
:10033000CB010895FC01848181FF0DC080FD07C0C1
:1003400089E0440F551F661F771F8A95D1F720E07B
:1003500081E10E94480180E00895FC01848181FFD1
:100360000DC080FD07C089E0440F551F661F771F31
:100370008A95D1F720E088E10E94480180E0089545
:100380008F929F92AF92BF92DF92EF92FF920F9364
:100390001F93CF93DF93E22ED32EF02EC42FD0E005
:1003A0008E010F0D111D50546109710929E07695D8
:1003B0006795579547952A95D1F7FC0180809180E4
:1003C000A280B380480D591D6A1D7B1DA12CB12C44
:1003D00095010E949A01CA0DDB1D9E2DEE2DFD2D6B
:1003E0008E2F891B8F1518F489918193F9CFDF9196
:1003F000CF911F910F91FF90EF90DF90BF90AF9042
:100400009F908F9008953F924F925F926F927F924C
:100410008F929F92AF92BF92CF92DF92EF92FF9214
:100420000F931F93CF93DF935C016A017B01822EB0
:10043000332E902E2A013B0180E4581A610871087E
:1004400089E076946794579447948A95D1F7F5019B
:1004500080819181A281B381480E591E6A1E7B1E44
:10046000EA01D1708E0120E030E0B301A201C501A4
:100470000E949A01982DEC2DF0E0A82DB32D8A2F23
:10048000891B891518F48D918193F9CF8E01090D7F
:10049000111D20E030E0B301A201C5010E94AD01B1
:1004A000DF91CF911F910F91FF90EF90DF90CF9050
:1004B000BF90AF909F908F907F906F905F904F9084
:1004C0003F9008958091C00087FF04C08091C600CE
:1004D00090E008958EEF9FEF08959091C00095FFF2
:1004E000FCCF8093C6000895EF92FF920F93822F66
:1004F0009701002331F0082F84EC97E00E9403025B
:1005000005C0082F84EC97E00E94C00181E00F91A4
:10051000FF90EF900895AF92BF92CF92DF92EF924B
:10052000FF920F931F93CF93DF935C016A017B01CE
:10053000E901013009F138F0023041F500E012E044
:100540000E94AD0121C0411551056105710539F4C5
:100550000E948D01688379838A839B830DC041301B
:1005600051056105710591F480E092E0A0E0B0E0F2
:1005700088839983AA83BB8300E012E09E01B701C0
:10058000A601C5010E949A0190E002C080E090E0BF
:10059000DF91CF911F910F91FF90EF90DF90CF905F
:1005A000BF90AF900895F894F894A8950FB6F8947A
:1005B000A89580916000886180936000109260002F
:1005C0000FBE87E68093C4001092C50086E080933A
:1005D000C200E1ECF0E080818861808384B18862B0
:1005E00084B90895CF93DF93EC018991882331F08A
:1005F000082E000C990B0E946D02F7CFDF91CF916E
:1006000008950E94D30281E691E00E94F20284ECF8
:1006100097E00E946E01811104C08FE891E00E9472
:10062000F2028EE991E00E94F20294ECC92E97E06A
:10063000D92E2BE8E22E22E0F22E0DE612E022E681
:1006400032E044E752E069E873E384EF92E00E940D
:10065000B7334C9949C0C12CD12C80EEE82E80EAEA
:10066000F82E40E250E06CE070E04A015B018FEF51
:10067000881A980AA80AB80A00E012E02CEF32E0C3
:1006800084EC97E00E949A0126013701C0E0D0E097
:100690009E0124503D4F00E2B301A20184EC97E09B
:1006A0000E940302A09680E2480E511C611C711C3E
:1006B000C11582E0D80761F782E0D80EE11CF11C79
:1006C000B501A401C114D104E10481EAF80669F678
:1006D00082E195E0A0EEB0EA8093CC039093CD0345
:1006E000A093CE03B093CF0384EF92E00E948034B6
:1006F000FFCFCF93DF93CDB7DEB729970FB6F8942E
:10070000DEBF0FBECDBF1986FE0139969E012F5F59
:100710003F4F462F4F7054E0969587957795679594
:100720005A95D1F74A3010F0495C01C0405D4293C0
:10073000E217F30771F7CF010E94F20229960FB674
:10074000F894DEBF0FBECDBFDF91CF9108958F9299
:100750009F92AF92BF92EF92FF921F93CF93DF933E
:10076000CDB7DEB760970FB6F894DEBF0FBECDBF32
:10077000188A7E0120E1E20EF11C10E02AE0822EB0
:10078000912CA12CB12CA50194010E94CF3BE0E358
:10079000E60FB901CA01D701EE937D01611571051C
:1007A0008105910519F01F5F1F3069F78EE090E019
:1007B000811B910921E030E02C0F3D1F820F931F18
:1007C0000E94F20260960FB6F894DEBF0FBECDBF56
:1007D000DF91CF911F91FF90EF90BF90AF909F90CE
:1007E0008F900895680F791F8617970721F0FC01F5
:1007F0001192CF01F9CF0895FB0121503109410930
:10080000510928F06191DC016D93CD01F6CF089577
:10081000462F50E0FA017097E031F105B0F4EC5C3E
:10082000FF4F0C94F13B885B9F4F08958C579F4F6F
:10083000089588589F4F08958C5A9F4F0895805A65
:100840009F4F089584599F4F0895FC01E05BFE4F30
:100850000190F081E02D61EB71E0099580E090E07E
:1008600008958F929F92AF92BF92CF92DF92EF92B4
:10087000FF920F931F93CF93DF93EC018C01005CE9
:100880001F4FD8019C919F71961709F479C091313F
:1008900049F4FE01E057FF4FDE0190969E012C5572
:1008A0003F4F59C06131A9F3F62E692FCE010E9446
:1008B00008046C016F2DCE010E940804FC01C816CB
:1008C000D90609F45DC04CA95DA96EA97FA9D6011E
:1008D0004D935D936D937C93139748AD59AD6AAD7D
:1008E0007BAD14964D935D936D937C931797CE01DA
:1008F0008C5B9F4FDC014D915D916D917C91D60198
:1009000018964D935D936D937C931B974081518115
:10091000628173814CAB5DAB6EAB7FAB4481558123
:100920006681778148AF59AF6AAF7BAF408551850B
:1009300062857385FC014083518362837383F80170
:1009400080819181A281B381807E8F298083918370
:10095000A283B38315C0C080D180E280F3808D90E4
:100960009D90AD90BC90139781929192A192B1927B
:10097000CD92DD92ED92FD92E217F30761F794CFED
:10098000DF91CF911F910F91FF90EF90DF90CF906B
:10099000BF90AF909F908F9008952F923F924F926B
:1009A0005F926F927F928F929F92AF92BF92CF92FF
:1009B000DF92EF92FF920F931F93CF93DF9300D0BC
:1009C00000D000D0CDB7DEB79E838D83B22E202F0E
:1009D000FC01EC5AFE4F0190F081E02D309709F0B8
:1009E00009950D811E81005C1F4FAD81BE81DC9693
:1009F000CD90DD90ED90FC90DF97FD01E65BFE4F22
:100A0000AC5BBF4F1D01D801BB2089F18D909D903B
:100A1000AD90BC90B4E0CB0ED11CE11CF11C408029
:100A2000518062807380ECE04E0E511C611C711C81
:100A300067E18D819E810E943104D501C4018074DB
:100A40008769F80180839183A283B383D1018D925A
:100A50009D92AD92BC921397ED81FE81C0AED1AE56
:100A6000E2AEF3AE44AE55AE66AE77AE49C08D9001
:100A70009D90AD90BC9024013501B0E44B2227E954
:100A8000422A85FC05C084E090E0A0E0B0E004C00C
:100A900086E090E0A0E0B0E0A7019601280F391FA2
:100AA0004A1F5B1F29833A834B835C83C080D180BC
:100AB000E280F38030E1C30ED11CE11CF11C67E140
:100AC0008D819E810E943104D8014D925D926D927C
:100AD0007C921397F10180829182A282B382298154
:100AE0003A814B815C81AD81BE81D8962D933D9337
:100AF0004D935C93DB97FD01C4AED5AEE6AEF7AE89
:100B000026960FB6F894DEBF0FBECDBFDF91CF9112
:100B10001F910F91FF90EF90DF90CF90BF90AF901B
:100B20009F908F907F906F905F904F903F902F900D
:100B300008952F923F924F925F926F927F928F9281
:100B40009F92AF92BF92CF92DF92EF92FF920F935C
:100B50001F93CF93DF93CDB7DEB7C754D1090FB63C
:100B6000F894DEBF0FBECDBF1C014F87588B698B39
:100B70007A8B0BA31CA32DA33EA3EB8ACBA6AF8E2F
:100B80008C01005C1F4F1C8F0B8FF80180819181BD
:100B9000A281B3818F719927AA27BB278031910544
:100BA000A105B10541F021E04F97A105B10509F07C
:100BB00020E02FA302C011E01FA32F8538894989A7
:100BC0005A89E52FE295EF70E695EE878E2F90E03B
:100BD0008830910508F09FC0FC01EC5BFF4F0C943E
:100BE000F13BEB8DFC8D80819181A281B3815EE12F
:100BF000B695A795979587955A95D1F728C0EB8D0F
:100C0000FC8D80819181A281B3814DE1B695A7953C
:100C1000979587954A95D1F71AC0EB8DFC8D808109
:100C20009181A281B3818827B7FD83959927AA274F
:100C3000BB2772C0EB8DFC8D80819181A281B38135
:100C40002CE1B695A795979587952A95D1F7817050
:100C500063C0EB8DFC8D80819181A281B381B5FF52
:100C60005AC00EE1B695A795979587950A95D1F745
:100C7000F1E08F273FC0EB8DFC8D80819181A281B7
:100C8000B381AC01BD01FCE1769567955795479519
:100C9000FA95D1F7F1E04F2741708827B7FD83958A
:100CA0009927AA27BB27842737C0EB8DFC8D80812D
:100CB0009181A281B3818C019D01002737FD0395AD
:100CC000112722273327AC01BD01ECE1769567950A
:100CD00057954795EA95D1F7F1E04F2741704017B6
:100CE000D1F0FEE1B695A79597958795FA95D1F73E
:100CF00001E08027817099270FC04F855889698945
:100D00007A89ECE17695679557954795EA95D1F7FD
:100D1000417081E002C080E040E0AF84B888C988BB
:100D2000DA88D4FE04C0411102C091E089278823EB
:100D300011F40C941524CF84D888E988FA888F2D73
:100D40009927AA27BB278F709927AA27BB27FC01C1
:100D50003297EE30F10520F4E45BFF4F0C94F13B49
:100D600041110C94DE224F85588969897A8940792E
:100D7000552766277727403951056105710509F028
:100D8000E5C74F85588969897A8944275527662799
:100D900071708F859889A989BA8980769927AA2741
:100DA000BB27892B8A2B8B2B09F023C44F845888AF
:100DB00069887A8834E176946794579447943A9591
:100DC000D1F7452B462B472B09F493C193018201A0
:100DD0000F701127222733270FA318A729A73AA797
:100DE000011511052105310541F0043011052105DA
:100DF000310509F4C5C00C94DE2289898F70F10198
:100E000014E0819FE00DF11D11244080518062802B
:100E100073808F3081F4FB88FF2029F082E090E01E
:100E2000A0E0B0E004C084E090E0A0E0B0E0480EB4
:100E3000591E6A1E7B1E1B89112329F0DF8CDD20C1
:100E400011F00CEF4022410112EB811A1EEF910AC2
:100E5000D401ED91FC918E01025F1F4F5801CBA48C
:100E6000E12C04E0A3019201BE01675F7F4FC10145
:100E70000995882309F4FFC029853A854B855C854F
:100E80002BA33CA34DA35EA32F852F70F10134E06B
:100E9000239FE00DF11D112480819181A281B381F6
:100EA0002F3081F4FB88FF2029F042E050E060E021
:100EB00070E004C044E050E060E070E0840F951FF3
:100EC000A61FB71F1B89112319F0DF8CD1108C7F4F
:100ED00089879A87AB87BC87D401ED91FC918E01FD
:100EE000025F1F4F5801CBA4EE24E39404E0A3015A
:100EF0009201BE01675F7F4FC1010995882309F404
:100F0000BAC08F859889A989BA892CE0B695A7952A
:100F1000979587952A95D1F78F708F3009F58BA11A
:100F20009CA1ADA1BEA18E7FF10184AF95AFA6AF0C
:100F3000B7AFEB8DFC8D80819181A281B3818F7DD4
:100F400080839183A283B383FBA1F0FF02C0806200
:100F5000BFC1FBA1F1FD02C00C9415240C94C22169
:100F6000F10104E0809FE00DF11D11242BA13CA1B3
:100F70004DA15EA120833183428353830C941524B9
:100F800089898F70F10134E0839FE00DF11D1124F8
:100F900040805180628073808F3081F4FB88FF2015
:100FA00029F082E090E0A0E0B0E004C084E090E0AE
:100FB000A0E0B0E0480E591E6A1E7B1E1B8911235B
:100FC00029F0DF8CDD2011F00CEF4022410112EB03
:100FD000811A1EEF910AD401ED91FC918E01025FFE
:100FE0001F4F5801CBA4E12C01E0A3019201BE01E7
:100FF000635F7F4FC10109958823E9F11D852F8526
:101000002F70F10134E0239FE00DF11D1124808148
:101010009181A281B3812F3099F4FB88FF2041F0A8
:1010200022E030E040E050E02FA338A749A75AA7BC
:101030004FA158A569A57AA5840F951FA61FB71FB4
:10104000FB88FF2019F0DF8CD1108C7F8D87D401B5
:10105000ED91FC919E01225F3F4F5901CBA4EE24FC
:10106000E39401E0A3019201BE01635F7F4FC101E0
:101070000995811105C00E8520E0B301A20101C4CC
:10108000812F90E0A0E0B0E04F85588969897A8986
:101090000CE076956795579547950A95D1F74F706F
:1010A0004F3001F58E7FF10184AF95AFA6AFB7AF9A
:1010B000E05CFF4F80819181A281B3818F7D80832D
:1010C0009183A283B38310FF07C0806280839183E2
:1010D000A283B3830C94152411FD02C00C94152433
:1010E0000C94C221F10104E0409FE00DF11D112498
:1010F000EDCFD301C2018F709927AA27BB2780317A
:10110000910510F00C94DE22FC01E65AFF4F0C947E
:10111000F13B8F859889A989BA898827907FAA276A
:10112000BB27892B8A2B8B2B11F00C94DE22C12C30
:10113000D12C760130C08F859889A989BA89FCE0C5
:10114000B695A79597958795FA95D1F78F70F10188
:1011500014E0819FE00DF11D1124C080D180E28058
:10116000F3808F3081F41B89112329F082E090E015
:10117000A0E0B0E004C084E090E0A0E0B0E0C80EE1
:10118000D91EEA1EFB1E1B89112329F01F8D112376
:1011900011F02CEFC22288898F70F10134E0839F17
:1011A000E00DF11D112420813181428153818F3066
:1011B00081F41B89112329F082E090E0A0E0B0E0E7
:1011C00004C084E090E0A0E0B0E0280F391F4A1F7F
:1011D0005B1F1B89112319F01F8D11112C7FEF85C7
:1011E000EF70D10164E0E69FA00DB11D11246D9157
:1011F0007D918D919C91EF3091F41B89112331F0F9
:10120000E2E08E2E912CA12CB12C05C004E0802EA2
:10121000912CA12CB12C680D791D8A1D9B1D1B8959
:10122000112319F01F8D11116C7F0E94BF3BC60E58
:10123000D71EE81EF91E89898F708F3041F5D701BE
:10124000C6018E7FF10184AF95AFA6AFB7AFEB8D2E
:10125000FC8D80819181A281B3818F7D8083918378
:10126000A283B383C0FE06C0806280839183A28381
:10127000B38317C0C1FE15C0F101E05BFE4F0190C2
:10128000F081E02D6DEC71E0C10109950AC0F1011A
:1012900004E0809FE00DF11D1124C082D182E28222
:1012A000F3822F85388949895A8944FD02C00C94FC
:1012B0001524EB8DFC8D80819181A281B381BF7358
:1012C000C114D104E104F10409F4B064F7FCB0687E
:1012D000EB8DFC8DFBCE8F859889A989BA891CE09E
:1012E000B695A795979587951A95D1F78F70F101C7
:1012F00004E0809FE00DF11D1124C080D180E280C8
:10130000F3808F3081F41B89112329F082E090E073
:10131000A0E0B0E004C084E090E0A0E0B0E0C80E3F
:10132000D91EEA1EFB1E1B89112329F01F8D1123D4
:1013300011F02CEFC22289898F70F10134E0839F74
:10134000E00DF11D112440805180628073808F3048
:1013500081F41B89112329F082E090E0A0E0B0E045
:1013600004C084E090E0A0E0B0E0480E591E6A1E80
:101370007B1E1B89112329F01F8D112311F02CEFE7
:1013800042229201A30160E070E080E090E000E280
:101390000E943C3C46015701422E4C28532E5928AE
:1013A000642E6A28752E7B284B018B8F9BA708C063
:1013B000412C512C612C712C812C912C1B8E1BA645
:1013C00028892F70F10134E0239FE00DF11D1124D5
:1013D00060817181828193812F3081F4FB88FF20AD
:1013E00029F002E010E020E030E004C004E010E06A
:1013F00020E030E0600F711F821F931F1B891123B3
:1014000019F0DF8CD1106C7FEF85EF70D10104E013
:10141000E09FA00DB11D11242D913D914D915C9146
:10142000EF3091F41B89112331F0B2E0CB2ED12C97
:10143000E12CF12C05C0A4E0CA2ED12CE12CF12C1A
:101440002C0D3D1D4E1D5F1DFB88FF2019F01F8DCB
:1014500011112C7FAF84B888C988DA88C6FE03C012
:101460000E94023C02C00E94113C59016A017B01AA
:101470008C019201A301B4018B8D9BA50E94733C4A
:10148000D22EE32EF42E152F962EA72EB82EC92E6F
:1014900000E20E94573C2B8B3C8B4D8B5E8B6F8BFD
:1014A000788F898F9A8F4B885C886D887E888D2D88
:1014B0009E2DAF2DB12F4F85588969897A89FCE01F
:1014C0007695679557954795FA95D1F74F704F30B8
:1014D00041F5AC01BD014E7FF10144AF55AF66AFA0
:1014E00077AFE05CFF4F40815181628173814F7D16
:1014F0004083518362837383D0FE06C04062408381
:1015000051836283738317C0D1FE15C0F101E05B84
:10151000FE4F0190F081E02D6DEC71E0C101099565
:101520000AC0F10104E0409FE00DF11D1124808309
:101530009183A283B38389898F708F3041F5D30162
:10154000C2018E7FF10184AF95AFA6AFB7AFE05C6B
:10155000FF4F80819181A281B3818F7D80839183B0
:10156000A283B38340FE06C0806280839183A283FE
:10157000B38317C041FE15C0F101E05BFE4F01903F
:10158000F081E02D6DEC71E0C10109950AC0F10117
:1015900004E0809FE00DF11D11244082518262829F
:1015A00073822F85388949895A8944FD02C00C9479
:1015B0001524F101E05CFF4F408051806280738010
:1015C0003FE373222D2D3E2D4F2D512F692D7A2D66
:1015D0008B2D9C2DA0E00E947C3C11F4689476F841
:1015E0004B895C896D897E8977FFAAC3689477F8F7
:1015F000A7C319821A821B821C821D821E821F822F
:10160000188619891F708F859889A989BA89A6FFBC
:101610001BC02C013D01E4E07694679457944794F5
:10162000EA95D1F790EF49225524662477248F85D7
:101630009889A989BA898F709927AA27BB27482A30
:10164000592A6A2A7B2A33C08F859889A989BA8941
:1016500088279F70AA27BB27892B8A2B8B2B09F001
:1016600010688F858F70F101A4E08A9FE00DF11D55
:10167000112440805180628073808F3081F4FB8818
:10168000FF2029F082E090E0A0E0B0E004C084E018
:1016900090E0A0E0B0E0480E591E6A1E7B1EFB8859
:1016A000FF2029F0DF8CDD2011F00CEF402221E03B
:1016B000CF84D888E988FA88CC24DD2430E1E3227D
:1016C000FF248F859889A989BA89A4FF20E08F8596
:1016D0009889A989BA8980729927AA27BB27EF859B
:1016E000E6FF08C00097A105B10511F0106108C020
:1016F000106206C0892B8A2B8B2B41F4106806C020
:10170000CD28CE28CF2811F40C943C23211110644D
:10171000AF84B888C988DA88C7FC08C07094609420
:1017200050944094411C511C611C711C8F859889F8
:10173000A989BA8988279927A072BB27452B462BF0
:10174000472B51F419861A861B861C86892B8A2BF7
:101750008B2B69F010680BC049865A866B867C8695
:10176000892B8A2B8B2B19F4412C512C320117FF1A
:1017700002C00C94DE22012F0F700CA7410124E05F
:10178000029F800C911C1124D4012D913D914D910B
:101790005C912BA33CA34DA35EA30F30C1F4FB8847
:1017A000FF2029F082E090E0A0E0B0E004C084E0F7
:1017B00090E0A0E0B0E02BA13CA14DA15EA1280FDC
:1017C000391F4A1F5B1F2BA33CA34DA35EA3FB88BD
:1017D000FF2061F0DF8CDD2049F02BA13CA14DA161
:1017E0005EA12C7F2BA33CA34DA35EA3312F3073AE
:1017F000D32E40E1341799F0431718F0332379F0D2
:1018000006C050E2351729F060E3361729F0F12CB5
:1018100008C0FF24F39405C078E0F72E02C062E010
:10182000F62E89859A85AB85BC85F101E25BFE4F7A
:101830002BA13CA14DA15EA1280F391F4A1F5B1FA0
:101840002FA338A749A75AA716FFD4C00190F0814B
:10185000E02DAE01425F5F4F5A01CBA4E12C0F2D6A
:101860002FA138A549A55AA5BE016F5F7F4FC101C1
:10187000099581110BC00E8520E04FA158A569A5DF
:101880007AA5C1010E94CD040C9415248F859889F6
:10189000A989BA895CE0B695A795979587955A95D9
:1018A000D1F751E0F5120BC02981422F50E060E0E2
:1018B00070E027FF13C05F6F6F6F7F6F0FC012E084
:1018C000F1120EC029813A81A90160E070E0E0E1E7
:1018D000DE1204C037FF02C06F6F7F6F8F7040C091
:1018E00049815A816B817C81182F1F701F3041F50F
:1018F000DB01CA018E7FF10184AF95AFA6AFB7AF10
:10190000E05CFF4F80819181A281B3818F7D8083D4
:101910009183A283B38340FF06C08062808391835A
:10192000A283B38317C041FF15C0F101E05BFE4FF6
:101930000190F081E02D6DEC71E0C10109950AC0C4
:10194000F10104E0109FE00DF11D1124408351834B
:10195000628373834D815E816F81788581E0810F21
:101960008F3041F5DB01CA018E7FF10184AF95AF65
:10197000A6AFB7AFE05CFF4F80819181A281B381B8
:101980008F7D80839183A283B38340FF06C08062F2
:1019900080839183A283B38317C041FF15C0F101F7
:1019A000E05BFE4F0190F081E02D6DEC71E0C10134
:1019B00009950AC0F10104E0809FE00DF11D11249A
:1019C0004083518362837383411451046104710421
:1019D00011F40C9415242BA13CA14DA15EA1420E43
:1019E000531E641E751E1CA51F3011F00C94241D7F
:1019F0000C94A921411451046104710449F0ABA075
:101A0000BCA0CDA0DEA04A0C5B1C6C1C7D1C106829
:101A10008F859889A989BA894CE0B695A79597953D
:101A200087954A95D1F7BB24B394FB1025C08F70DE
:101A3000D10104E0809FA00DB11D11244D915D9155
:101A40006D917C918F3081F42B89222329F082E0E3
:101A500090E0A0E0B0E004C084E090E0A0E0B0E05E
:101A6000480F591F6A1F7B1F3B89332319F0DF8CF6
:101A7000D1104C7F49836FC032E0E32E8F70D101CB
:101A800004E0809FA00DB11D11244D915D916D91D9
:101A90007C91FE101BC08F3081F42B89222329F00A
:101AA00082E090E0A0E0B0E004C084E090E0A0E03C
:101AB000B0E0480F591F6A1F7B1F3B89332319F081
:101AC000DF8CD1104C7F5A83498345C08F3091F40D
:101AD0002B89222331F022E0822E912CA12CB12CD3
:101AE00005C094E0892E912CA12CB12C480D591DD4
:101AF0006A1D7B1D3B89332319F0DF8CD1104C7F8D
:101B000049835A836B837C838F5FD10104E0809F7C
:101B1000A00DB11D11244D915D916D917C918F307F
:101B200081F42B89222329F082E090E0A0E0B0E04C
:101B300004C084E090E0A0E0B0E0480F591F6A1FA5
:101B40007B1F3B89332319F0DF8CD1104C7F4D83F1
:101B50005E836F8378870190F081E02D9E01225F84
:101B60003F4F5901CBA4EE24E3940F2D2FA138A5AC
:101B700049A55AA5BE016F5F7F4FCEC01F8514FFD8
:101B800002C00C94DE2241110C94B41B19891F7001
:101B90004F85588969897A8971FF02C00C94C41BEA
:101BA0002A013B015FE0552266247724AF84B88880
:101BB000C988DA88C6FE1061CF84D888E988FA8897
:101BC000E4FC10622F85388949895A8947FD08C08D
:101BD0007094609450944094411C511C611C711C81
:101BE0008F859889A989BA8988279927A072BB27E8
:101BF0004F85588969897A8970FF02C00C946F1CDF
:101C000019861A861B861C86892B8A2B8B2B09F03A
:101C1000106417FF02C00C94DE2216FD1BA614FDF3
:101C200002C00C947E1C34E0F32E512F5F70D52E31
:101C3000410164E0569F800C911C1124D4018D91C8
:101C40009D910D90BC91A02D8BA39CA3ADA3BEA391
:101C5000BFE05B1711F40C94821C3B8931110C948A
:101C60009C1C89859A85AB85BC85F101E25BFE4FA2
:101C70002BA13CA14DA15EA1280F391F4A1F5B1F5C
:101C80002FA338A749A75AA715FF02C00C94AC1C74
:101C9000411451046104710449F0ABA0BCA0CDA073
:101CA000DEA04A0C5B1C6C1C7D1C10688F8598891B
:101CB000A989BA890CE0B695A795979587950A9555
:101CC000D1F7BB24B3948F70D10104E0809FA00DA5
:101CD000B11D11244D915D916D917C91FB100C947F
:101CE000401D8F3011F40C94261D3B8931110C944A
:101CF000381D49870190F081E02D9E01225F3F4F02
:101D00005901CBA4EE24E3940F2D2FA138A549A5AA
:101D10005AA5BE01675F7F4FC1010995882309F469
:101D2000AACD17FD02C00C9415241F701F3011F4AA
:101D30000C945E1DF10104E0109FE00DF11D1124D3
:101D400040825182628273820C9415248F85988917
:101D5000A989BA8988279927A079B1700097A10528
:101D6000B14009F0A4C68F859889A989BA8904E091
:101D7000B695A795979587950A95D1F78F7099276E
:101D8000AA27BB278031910510F00C94DE22FC01BC
:101D9000E659FF4F0C94F13B8F859889A989BA8940
:101DA0009F70AF7BBB270097AF40B10551F54F85C2
:101DB000588969897A8966FF08C0F101EC5BFF4F99
:101DC000408151816281738106C0AB8DBC8D4D9184
:101DD0005D916D917C918F859889A989BA891CE064
:101DE000B695A795979587951A95D1F78F708F30EF
:101DF00009F439C6F10104E0809FE00DF11D1124C2
:101E0000B6C08F859889A989BA89807FA07BBB27B6
:101E10008115904FA042B10511F00C94DE228F8500
:101E20008F70F10124E0829FE00DF11D1124C0802C
:101E3000D180E280F3808F3081F41B89112329F057
:101E400082E090E0A0E0B0E004C084E090E0A0E098
:101E5000B0E0C80ED91EEA1EFB1E1B89112329F013
:101E60001F8D112311F02CEFC2224F8558896989EB
:101E70007A8966FD4BC56F85788989899A894C0175
:101E8000AA24BB244EC5AF84B888C988DA88C6FEA8
:101E900081C0D601C501807F9F70BF7080319F4097
:101EA000AF46B14011F00C94DE228F858F70F101A6
:101EB00014E0819FE00DF11D112440815181628168
:101EC00073818F3081F4FB88FF2029F082E090E05D
:101ED000A0E0B0E004C084E090E0A0E0B0E0480FF3
:101EE000591F6A1F7B1F1B89112319F0DF8CD1102A
:101EF0004C7F80E000E010E020E030E86A017B01E8
:101F0000C022D122E222F322CD28CE28CF2839F4D4
:101F10008F5F3695279517950795803279F7482F6B
:101F200050E060E070E00F85188929893A899CE0CB
:101F300036952795179507959A95D1F70F700F301D
:101F400011F54E7FD101DC964D935D936D937C939B
:101F5000DF97EB8DFC8D40815181628173814F7DD4
:101F6000408351836283738380FF07C04062408354
:101F70005183628373830C94152481FD02C00C94F9
:101F800015240C94C221F10114E0019FE00DF11D14
:101F90001124EDCF8F859889A989BA898827BF70C8
:101FA00081159F4FAF42B14011F00C94DE228F8516
:101FB0009889A989BA8980739927AA27BB27C097CE
:101FC000A105B105E9F4FB88FF2031F083E0C82EBC
:101FD000D12CE12CF12C05C004E0C02ED12CE12C39
:101FE000F12C0BA11CA12DA13EA1C00ED11EE21E01
:101FF000F31ED101D896CD92DD92ED92FC92DB9743
:102000002F852F70F101B4E02B9FE00DF11D1124FD
:1020100080819181A281B3812F3081F4FB88FF20E0
:1020200029F042E050E060E070E004C044E050E09D
:1020300060E070E0840F951FA61FB71F1B89112356
:1020400011F40C943C20DF8CDD2011F40C943C2026
:102050008C7F0C943C208F859889A989BA89882720
:102060009F70AA27BB27892B8A2B8B2B11F00C94EE
:10207000DE228F858F70F101B4E08B9FE00DF11DA2
:10208000112480809180A280B3808F3081F4FB88FE
:10209000FF2029F082E090E0A0E0B0E004C084E0FE
:1020A00090E0A0E0B0E0880E991EAA1EBB1E1B891E
:1020B000112329F0DF8CDD2011F00CEF802229891B
:1020C0002F70F10114E0219FE00DF11D112480819A
:1020D0009181A281B3812F3081F4FB88FF2029F008
:1020E00042E050E060E070E004C044E050E060E0B6
:1020F00070E0840F951FA61FB71F1B89112319F0CD
:10210000DF8CD1108C7F4F85588969897A8915E1D8
:1021100076956795579547951A95D1F7437055274A
:10212000662777277501640100E8F01A42305105EF
:102130006105710509F44DC0433051056105710514
:1021400009F481C0413051056105710509F1AC0107
:10215000BD01480D591D6A1D7B1DC826D926EA26DA
:10216000FB268A019B01082719272A273B27C02223
:10217000D122E222F322CC24F7FCC394DD24EE2406
:10218000FF241C2DCC2009F4A0C0AC01BD0198C0D7
:10219000B501A401481B590B6A0B7B0B8C259D25AF
:1021A000AE25BF258A019B01082519252A253B2537
:1021B00080239123A223B3238827B7FD83959927F2
:1021C000AA27BB27182F882309F47FC0B501A401D3
:1021D00077C02C013D01440C551C661C771CB301D3
:1021E000A201482759276A277B278C019D010C25CE
:1021F0001D252E253F254023512362237323442789
:1022000077FD4395552766277727142F442331F010
:102210002C013D01770C4408542C3201B301A2017A
:10222000480D591D6A1D7B1DC424D524E624F724BE
:102230005301420184269526A626B726C820D92018
:10224000EA20FB2039C02C013D01440C551C661CC2
:10225000771CB301A201482759276A277B278C01E5
:102260009D010C251D252E253F254023512362234A
:102270007323442777FD4395552766277727142F27
:10228000442331F02C013D01770C4408542C3201D9
:10229000B301A201480D591D6A1D7B1DC424D5241C
:1022A000E624F724D301C20184279527A627B72760
:1022B000C822D922EA22FB22F7FE07C0B301A201FD
:1022C000770F440B542FBA0111E08F859889A989A3
:1022D000BA89ECE0B695A79597958795EA95D1F7D9
:1022E0008AC2F101E65BFE4F80809180A280B380BC
:1022F000FCE08F0E911CA11CB11CAB8DBC8DCD9050
:10230000DD90ED90FC9067E1C1010E94310487E906
:1023100090E0A0E0B0E0EB8DFC8D80839183A28300
:10232000B383F101EC5BFF4FC082D182E282F38282
:10233000CBA0DCA0EDA0FEA0F4E0CF0ED11CE11CF0
:10234000F11CD101D896CD92DD92ED92FC92DB97F3
:10235000F10184AE95AEA6AEB7AE0C94152440380C
:1023600051056105710511F00C94DE222F852F7047
:10237000F10104E0209FE00DF11D112460817181C5
:10238000828193812F3081F41B89112329F002E08F
:1023900010E020E030E004C004E010E020E030E095
:1023A000600F711F821F931FFB88FF2019F01F8D84
:1023B00011116C7FE889EF70D10124E0E29FA00D3C
:1023C000B11D11240D911D912D913C91EF3091F48F
:1023D000FB88FF2031F052E0C52ED12CE12CF12CEE
:1023E00005C044E0C42ED12CE12CF12C0C0D1D1D98
:1023F0002E1D3F1DFB88FF2019F0DF8CD1100C7FB4
:10240000CF84D888E988FA88B5E1F694E794D79420
:10241000C794BA95D1F743E0C422DD24EE24FF240B
:1024200052E0C516D104E104F10409F4F5C0A3E0BB
:10243000CA16D104E104F10409F4ADC18F8498886F
:10244000A988BA88B0E28B229924AA24BB244F849D
:10245000588869887A88E0E44E22552466247724D7
:10246000CA94CD28CE28CF2809F45FC089288A28AD
:102470008B2821F0BC018827992702C0882799273B
:1024800077FF02C08F6F9F6F45284628472819F0B5
:102490004427552704C0A90198014427552737FF31
:1024A00002C04F6F5F6F0E94BF3BDC01CB014F85C5
:1024B000588969897A89ECE07695679557954795AB
:1024C000EA95D1F74F70F10104E0409FE00DF11D56
:1024D000112400811181228133814F3081F4FB88E6
:1024E000FF2029F042E050E060E070E004C044E0EA
:1024F00050E060E070E0040F151F261F371FFB88B7
:10250000FF2019F0DF8CD1100C7FAC01BD01400F12
:10251000511F621F731FB05880279127A227B3272E
:1025200004271527262737276BC045284628472824
:1025300019F04427552704C0A901980144275527BD
:1025400037FF02C04F6F5F6F0E94023C00E10E94A4
:10255000573CC901DA01AC01BD0189288A288B28C2
:1025600079F08F859889A989BA898827907FAA27C9
:10257000BB27892B8A2B8B2B11F00C94DE2239C1BF
:102580004F85588969897A890CE0769567955795C2
:1025900047950A95D1F74F70F10104E0409FE00D97
:1025A000F11D112400811181228133814F3081F48A
:1025B000FB88FF2029F042E050E060E070E004C0BA
:1025C00044E050E060E070E0040F151F261F371F45
:1025D000FB88FF2019F0DF8CD1100C7FAC01BD010E
:1025E000400F511F621F731F6C017D01E0E8FE1A4E
:1025F0000C251D252E253F2584279527A627B7279F
:1026000080239123A223B3238827B7FD839599279D
:10261000AA27BB27182FEEC0FF85F5FF04C0BC0119
:102620008827992702C08827992777FF02C08F6FD4
:102630009F6FAF84A6FE03C04427552704C0A9019D
:1026400098014427552737FF02C04F6F5F6F0E94E4
:10265000BF3BAB01BC014A015B018824B7FC8394FA
:102660009924AA24BB24182D8F859889A989BA8911
:10267000FCE0B695A79597958795FA95D1F7282F01
:102680002F70F10104E0209FE00DF11D11248081E5
:102690009181A281B3812F3091F43B89332331F0B2
:1026A00032E0432E512C612C712C05C004E0402EE9
:1026B000512C612C712C840D951DA61DB71D0B8905
:1026C000002319F03F8D31118C7F480F591F6A1F6D
:1026D0007B1F481759076A077B0710F4182D1260F3
:1026E0002F3041F5AC01BD014E7FF10144AF55AF34
:1026F00066AF77AFEB8DFC8D408151816281738134
:102700004F7D408351836283738380FF06C04062A4
:10271000408351836283738311C081FF0FC0F10135
:10272000E05BFE4F0190F081E02D6DEC71E0C101A6
:10273000099504C080839183A283B38389898F70B4
:10274000F101B4E08B9FE00DF11D11244081518116
:10275000628173818F3061F4EB89E11105C0E4E09F
:10276000CE2ED12CE12CF12C4C0D5D1D6E1D7F1D4C
:10277000FB88FF2019F0DF8CD1104C7F11FF04C0C3
:102780004F5F5F4F6F4F7F4F10FF33C04150510974
:10279000610971092EC0CF84D888E988FA88CC24D1
:1027A00040EFD422EE24FF24CD28CE28CF2811F0EC
:1027B0000C94DE225F8555FF04C0BC018827992751
:1027C00002C08827992777FF02C08F6F9F6FAF8560
:1027D000A6FF03C04427552704C0A9019801442738
:1027E000552737FF02C04F6F5F6F0E94BF3BAB01A1
:1027F000BC0110E089898F708F3041F5DB01CA017F
:102800008E7FF10184AF95AFA6AFB7AFEB8DFC8D96
:1028100080819181A281B3818F7D80839183A28306
:10282000B38340FF06C0806280839183A283B38319
:1028300017C041FF15C0F101E05BFE4F0190F08130
:10284000E02D6DEC71E0C10109950AC0F10104E0D1
:10285000809FE00DF11D11244083518362837383B7
:10286000112311F40C941524EB8DFC8D8081918142
:10287000A281B381B8600C94660841110C94DE22E9
:102880008F859889A989BA8988279927A079B170F5
:102890000097A105B14009F00AC1AF84B888C98882
:1028A000DA88C5FE76C0D601C50188279927AF749E
:1028B000BB27892B8A2B8B2B11F40C94DE22888961
:1028C0008F70880F76016501DD24EE24FF248823B4
:1028D000B9F0B701A601082E04C076956795579503
:1028E00047950A94D2F781958F7104C0CC0CDD1CFA
:1028F000EE1CFF1C8A95D2F7C42AD52AE62AF72AAD
:102900000F85188929893A8926FF04C0F101EC5BFB
:10291000FF4F24C72F85388949895A894A01AA243B
:10292000BB24AB8DBC8D4D905D906D907C901BA5B4
:10293000112309F180FE07C06C2D6F71C1010E9447
:10294000310444244C2881FE0AC05524D701C60115
:102950008827AA27BB27482A592A6A2A7B2A82FE67
:102960000AC06624D701C60188279927BB27482AB1
:10297000592A6A2A7B2A83FE08C07724CC24DD24C6
:10298000EE244C285D286E287F28AB8DBC8D0C94DE
:10299000CF210F85188929893A898CE036952795AA
:1029A000179507958A95D1F74F85588969897A894E
:1029B0005F7066277727AF84B888C988DA88C6FE33
:1029C0003BC0202F2F70F10104E0209FE00DF11D8E
:1029D000112480819181A281B38176016501CC248B
:1029E000DD241FE0E122FF241B892F3011F00C941D
:1029F0004523112331F012E0812E912CA12CB12C12
:102A000005C034E0832E912CA12CB12C880D991D8A
:102A1000AA1DBB1D1B8911110C94FD23AA27BB27DE
:102A2000BA0155274427FCE0CC0CDD1CEE1CFF1C32
:102A3000FA95D1F70C940C248F859889A989BA89C5
:102A4000E4E0B695A79597958795EA95D1F78827FD
:102A5000907FAA27BB27482B592B6A2B7B2B202F33
:102A60002F702F30E9F4DB01CA018E7FF10184AFB2
:102A700095AFA6AFB7AFEB8DFC8D80819181A28120
:102A8000B3818F7D80839183A283B38340FF02C093
:102A90000C94650841FD02C00C9415240C94C221CD
:102AA000F10104E0209FE00DF11D112460CA4F8464
:102AB000588869887A884424552410E16122772453
:102AC000AB8DBC8D2D913D914D915C912CA73DA777
:102AD0004EA75FA789019A015CE136952795179566
:102AE00007955A95D1F7B02FB170BB8F21E04CA557
:102AF0005DA56EA57FA5442755276627707248AB54
:102B000059AB6AAB7BAB6CA57DA58EA59FA595FF48
:102B100020E08F859889A989BA89B1FF2BC047E049
:102B2000B695A795979587954A95D1F7382F3E7119
:102B30008F859889A989BA899927AA27BB27332322
:102B400009F4C0C1AC01BD01032E04C076956795A0
:102B5000579547950A94D2F731953F7104C0880F75
:102B6000991FAA1FBB1F3A95D2F7842B952BA62B32
:102B7000B72BBBC08F859889A989BA8935E0B695EE
:102B8000A795979587953A95D1F7182F13703F859C
:102B90003F70D10194E0399FA00DB11D11248D919A
:102BA0009D910D90BC91A02D3F3081F4FB88FF20BA
:102BB00029F042E050E060E070E004C044E050E002
:102BC00060E070E0840F951FA61FB71FFB88FF20F1
:102BD00019F0DF8CD1108C7FEF84E4FEB5C038890A
:102BE0003F70A10104E0309F400D511D1124FA01F6
:102BF00040815181628173813F3091F4FB88FF20D5
:102C000031F002E0C02ED12CE12CF12C05C0F4E013
:102C1000CF2ED12CE12CF12C4C0D5D1D6E1D7F1D96
:102C2000FB88FF2019F0DF8CD1104C7F442309F47E
:102C300049C1123009F43FC0133009F454C01130B7
:102C4000F9F04032B8F420E230E0241B31095C0195
:102C50006D0104C0D694C794B794A7942A95D2F76F
:102C60002A2D217004C0880F991FAA1FBB1F4A95E7
:102C7000D2F728C1403209F01CC1282F21701AC197
:102C80004032A8F42FEF240F6C017D0104C0F694AC
:102C9000E794D794C7942A95D2F72C2D217004C0BD
:102CA000B695A795979587954A95D2F70BC140326F
:102CB00009F0FFC079C0403208F095C02FEF240F13
:102CC0005C016D0104C0D694C794B794A7942A956B
:102CD000D2F72A2D217004C0B595A79597958795B1
:102CE0004A95D2F7EFC04F7151F4AC01BD014427B2
:102CF00077FD4395552766277727242FE3C0642F58
:102D000070E09B01215031096C017D0104C0F694F3
:102D1000E794D794C7942A95D2F72C2D21706C0193
:102D20007D0104C0F694E794D794C7944A95D2F7EE
:102D30007195619571096F7104C0880F991FAA1F61
:102D4000BB1F6A95D2F7B0C04F85588969897A89C7
:102D500037E076956795579547953A95D1F7342F93
:102D60003F711230F1F1133009F468C01130D1F025
:102D7000332309F4A7C040E250E0431B51097C0112
:102D80008D0104C016950795F794E7944A95D2F7FC
:102D90002E2D217004C0880F991FAA1FBB1F3A95C2
:102DA000D2F790C0311108C08827B7FD83959927C5
:102DB000AA27BB27282F7EC02FEF230FAC01BD0110
:102DC00004C076956795579547952A95D2F7242F95
:102DD000217004C0B695A795979587953A95D2F737
:102DE00071C0311103C0B7FD69C063C0432F50E00B
:102DF000BA01615071096C017D0104C0F694E79439
:102E0000D794C7946A95D2F72C2D21706C017D015F
:102E100004C0F694E794D794C7943A95D2F7B7FFD5
:102E20000AC080E290E08C01041B150BA8018FEF13
:102E30009FEFDC0132C0D701C60144C0311110C080
:102E4000282F2170B695A7959795879548A959A9D8
:102E50006AA97BA9452B462B472BA1F1B06832C04C
:102E6000432F50E0BA01615071096C017D0104C02B
:102E7000F694E794D794C7946A95D2F72C2D2170D5
:102E80006C017D0104C0F694E794D794C7943A95F9
:102E9000D2F75195419551094F7104C0880F991F80
:102EA000AA1FBB1F4A95D2F78C299D29AE29BF299D
:102EB00009C020E080E090E0DC0104C021E08FEF59
:102EC0009FEFDC0139893F70CF84D888E988FA8880
:102ED00015E1F694E794D794C7941A95D1F75FE07B
:102EE000C522DD24EE24FF2460E1C616D10408F0DB
:102EF000A7C3F601E658FF4F0C94F13BF10174E0D3
:102F0000379FE00DF11D1124C080D180E280F38055
:102F10003F3081F41B89112329F042E050E060E04A
:102F200070E004C044E050E060E070E0C40ED51EE4
:102F3000E61EF71E1B89112329F01F8D112311F0A6
:102F40003CEFC322C822D922EA22FB227BC3F10133
:102F500044E0349FE00DF11D1124C080D180E28057
:102F6000F3803F3081F41B89112329F042E050E0C7
:102F700060E070E004C044E050E060E070E0C40E47
:102F8000D51EE61EF71E1B89112329F01F8D112364
:102F900011F03CEFC322C826D926EA26FB2652C3ED
:102FA000F10144E0349FE00DF11D11244081518175
:102FB000628173813F3061F41B89111105C0F4E017
:102FC000CF2ED12CE12CF12C4C0D5D1D6E1D7F1DE3
:102FD000FB88FF2019F01F8D11114C7F6A017B01C6
:102FE000C81AD90AEA0AFB0A41145104610471049F
:102FF00009F428C34C015D0184269526A626B72630
:10300000970186010427152726273727082119212C
:103010002A213B21002737FD03951127222733273B
:103020000B8F21E0481759076A077B0708F00AC38E
:1030300096C0F10144E0349FE00DF11D1124408160
:103040005181628173813F3091F4FB88FF2031F020
:1030500012E0C12ED12CE12CF12C05C0F4E0CF2ED2
:10306000D12CE12CF12C4C0D5D1D6E1D7F1D1B899B
:10307000112319F0DF8CD1104C7F6C017D01C41A33
:10308000D50AE60AF70A411451046104710409F4EF
:10309000D9C24C015D0184269526A626B726970144
:1030A0008601082719272A273B27082119212A21C9
:1030B0003B21002737FD03951127222733270B8F4C
:1030C00021E084179507A607B70708F0BBC247C0E1
:1030D000F10104E0309FE00DF11D11244081518188
:1030E000628173813F3061F41B89112329F0F2E082
:1030F000CF2ED12CE12CF12C4C0D5D1D6E1D7F1DB2
:10310000FB88FF2019F01F8D11114C7F6C017D0190
:10311000C40ED51EE61EF71E41145104610471044D
:1031200009F490C2B05884279527A627B72797019E
:1031300086010427152726273727082319232A2342
:103140003B23002737FD03951127222733270B8FB9
:1031500021E0C416D506E606F70608F473C220E09F
:1031600071C2F10144E0349FE00DF11D1124408152
:103170005181628173813F3091F4FB88FF2031F0EF
:1031800032E0C32ED12CE12CF12C05C004E0C02E7E
:10319000D12CE12CF12C4C0D5D1D6E1D7F1D1B896A
:1031A000112319F0DF8CD1104C7FE8A8F9A80AA9E7
:1031B0001BA9EF28E02AE12AD1F06C017D010FEF75
:1031C000C01AD00AE00AF00AC40ED51EE61EF71E89
:1031D000411451046104710409F434C221E04C1516
:1031E0005D056E057F0510F00C94FC2214C06C0187
:1031F0007D01C40ED51EE61EF71E41145104610464
:10320000710409F41FC221E0C416D506E606F706CC
:1032100010F40C94FC2220E00C94FC22F10114E048
:10322000319FE00DF11D1124408151816281738134
:103230003F3091F4FB88FF2031F012E0C12ED12CF9
:10324000E12CF12C05C0F4E0CF2ED12CE12CF12C97
:103250004C0D5D1D6E1D7F1D1B89112319F0DF8C28
:10326000D1104C7FE8A8F9A80AA91BA9EF28E02AE9
:10327000E12AA9F06A017B01C81AD90AEA0AFB0A05
:10328000411451046104710409F4DCC121E04817C0
:1032900059076A077B0710F00C94122318C06C01C1
:1032A0007D01C094D094E094F094C40ED51EE61E27
:1032B000F71E411451046104710409F4C3C121E0F3
:1032C00084179507A607B70710F40C94122320E083
:1032D0000C941223F10104E0309FE00DF11D112444
:1032E00080809180A280B3803F3081F41B891123BC
:1032F00029F042E050E060E070E004C044E050E0BB
:1033000060E070E0840E951EA61EB71EFB88FF20AD
:1033100029F01F8D112311F03CEF832248A959A9F0
:103320006AA97BA96C017D01452B462B472B99F09F
:10333000C818D908EA08FB08411451046104710453
:1033400009F480C121E088159905AA05BB0510F094
:103350000C94272317C051E0C51AD108E108F108E1
:10336000C818D908EA08FB08411451046104710423
:1033700009F468C121E088169906AA06BB0610F474
:103380000C94272320E00C9427234114510461045A
:10339000710411F40C94DE22F10164E0369FE00D1B
:1033A000F11D1124C080D180E280F3803F3081F490
:1033B0001B89112329F042E050E060E070E004C076
:1033C00044E050E060E070E0C40ED51EE61EF71E3B
:1033D0001B89112329F01F8D112311F03CEFC3220B
:1033E000C822D922EA22FB22CAC041145104610436
:1033F000710411F40C94DE22F10144E0349FE00DDD
:10340000F11D1124C080D180E280F3803F3081F42F
:103410001B89112329F042E050E060E070E004C015
:1034200044E050E060E070E0C40ED51EE61EF71EDA
:103430001B89112329F01F8D112311F03CEFC322AA
:10344000C826D926EA26FB269AC0411451046104F5
:10345000710411F40C94DE22F10144E0349FE00D7C
:10346000F11D112440815181628173813F3081F4CB
:10347000FB88FF2029F002E010E020E030E004C0EB
:1034800004E010E020E030E0400F511F621F731F86
:103490001B89112319F0DF8CD1104C7F6A017B014D
:1034A000C81AD90AEA0AFB0A4C015D01842695264E
:1034B000A626B72697018601042715272627372732
:1034C000082119212A213B21002737FD03951127C7
:1034D000222733270B8F21E0481759076A077B07FC
:1034E00008F04DC04BC0411451046104710411F443
:1034F0000C94DE22F10104E0309FE00DF11D112457
:1035000040815181628173813F3081F41B89112395
:1035100029F002E010E020E030E004C004E010E018
:1035200020E030E0400F511F621F731FFB88FF2017
:1035300019F01F8D11114C7F6C017D01C40ED51E39
:10354000E61EF71EB05884279527A627B7279701B0
:1035500086010427152726273727082319232A231E
:103560003B23002737FD03951127222733270B8F95
:1035700021E0C416D506E606F70608F020E080E054
:1035800062C0F10144E0349FE00DF11D1124C080C0
:10359000D180E280F3803F3081F41B89112329F030
:1035A00042E050E060E070E004C044E050E060E0E1
:1035B00070E0C40ED51EE61EF71E1B89112329F0EC
:1035C0001F8D112311F03CEFC322C82AD92AEA2A01
:1035D000FB2A38C0F10144E0349FE00DF11D1124B5
:1035E00040815181628173813F3091F4FB88FF20DB
:1035F00031F002E0C02ED12CE12CF12C05C014E0FA
:10360000C12ED12CE12CF12C4C0D5D1D6E1D7F1DAA
:103610001B89112319F0DF8CD1104C7F8095909578
:10362000A095B0956C017D01C422D522E622F72237
:1036300009C06C017D01C094D094E094F09402C064
:103640006C017D0181E04F85588969897A89FCE0A8
:103650007695679557954795FA95D1F7942F9F7072
:1036600045284628472809F43FC08101005C1F4FC8
:103670003FA1311121C09F30F9F48823E9F0F10115
:10368000EC5BFF4FB08081809280A3806B2D6F71C7
:10369000C1010E943104D801BC9211968C921197FD
:1036A00012969C9212971396AC92F101C4AED5AECD
:1036B000E6AEF7AE0C9415244CA55DA56EA57FA5CE
:1036C0007F70C114D104E104F10409F47064F7FCC3
:1036D000706821117062AB8CA1107061D8014D939C
:1036E0005D936D937C931397882311F40C941524A8
:1036F0009F3071F5D701C6018E7FF10184AF95AF80
:10370000A6AFB7AF8101005C1F4FF80180819181A6
:10371000A281B3818F7D80839183A283B383C1FE15
:1037200009C0E05FFE4F0190F081E02D6DEC71E08B
:10373000C1010995F80180819181A281B3818F7DBA
:10374000C0FC02C00C9466088062F8010C94660804
:10375000F10104E0909FE00DF11D1124C082D1829F
:10376000E282F3820C9415248F859889A989BA89FD
:103770008827907FA077BD708115904FA045B540F8
:1037800009F01CC70C9415246F8564FD10688F85A3
:103790008F70F10174E0879FE00DF11D11244080CE
:1037A0005180628073808F3081F4FB88FF2029F084
:1037B00082E090E0A0E0B0E004C084E090E0A0E00F
:1037C000B0E0480E591E6A1E7B1EFB88FF2029F0C0
:1037D000DF8CDD2011F00CEF40228F859889A989BC
:1037E000BA8967E0B695A795979587956A95D1F7B9
:1037F0008F714F85588969897A89E5E07695679553
:1038000057954795EA95D1F743705527662777274F
:103810004230510561057105F9F0433051056105EC
:10382000710559F1413051056105710549F004C038
:10383000440C551C661C771C8A95D2F70C94D60D47
:10384000882309F447C004C076946794579447943A
:103850008A95D2F70C94D60D882349F004C075944C
:103860006794579447948A95D2F70C94D60D770CA9
:103870004408542C32010C94D60D8823C9F0B301AE
:10388000A201082E04C076956795579547950A942E
:10389000D2F781958F7104C0440C551C661C771CAF
:1038A0008A95D2F7442A552A662A772A0C94D60D8F
:1038B0007694679457944794EB8DFC8D8081918129
:1038C000A281B381B5FD02C00C94D60D689477F83F
:1038D0000C94D60D412C512C32010C94D60D4986F6
:1038E0005A866B867C86892B8A2B8B2B11F00C9445
:1038F000090E412C512C32010C94090EFF24F39433
:103900000C94150EEB89EE2329F082E090E0A0E004
:10391000B0E004C084E090E0A0E0B0E02BA13CA1C6
:103920004DA15EA1280F391F4A1F5B1F2BA33CA38B
:103930004DA35EA30C942D0E4F8D442311F40C94D3
:10394000310E6BA17CA18DA19EA16C7F6BA37CA38A
:103950008DA39EA30C94310E0190F081E02DAE0159
:10396000425F5F4F5A01CBA4E12C0F2D2FA138A548
:1039700049A55AA5BE01675F7F4FC10109958823FC
:1039800011F40C943B0C51E0F51208C0898590E0CD
:10399000A0E0B0E089879A87AB87BC8749855A85C4
:1039A0006B857C858F859889A989BA892CE0B69525
:1039B000A795979587952A95D1F78F708F3041F508
:1039C000DB01CA018E7FF10184AF95AFA6AFB7AF1F
:1039D000E05CFF4F80819181A281B3818F7D8083E4
:1039E0009183A283B38340FF06C08062808391836A
:1039F000A283B38317C041FF15C0F101E05BFE4F06
:103A00000190F081E02D6DEC71E0C10109950AC0D3
:103A1000F10104E0809FE00DF11D112440835183EA
:103A200062837383411451046104710409F4FDC677
:103A30002BA13CA14DA15EA1420E531E641E751E1A
:103A40003FE0D31609F485C4D401A9C42B892223ED
:103A500029F082E090E0A0E0B0E004C084E090E0D3
:103A6000A0E0B0E0480F591F6A1F7B1F0C94750E31
:103A7000DF8CDD2011F40C94790E4C7F0C94790EC0
:103A80008F3081F42B89222329F082E090E0A0E09E
:103A9000B0E004C084E090E0A0E0B0E0480F591F1F
:103AA0006A1F7B1F3B89332319F0DF8CD1104C7FB9
:103AB00049875A876B877C870C947A0ED301C201A1
:103AC0008E7FF10184AF95AFA6AFB7AFEB8DFC8DC4
:103AD0004AC4411173C519891F702F8538894989D6
:103AE0005A8946FD10684F85588969897A8965FD2C
:103AF00010646F85788989899A8987FD10618F851F
:103B00009889A989BA89B0FD106217FF03C0DFA0A8
:103B1000D11054C52F85388949895A8922273327DE
:103B2000407155272BA33CA34DA35EA3312F3F70BB
:103B3000F32EA10164E0369F400D511D11245DA7B5
:103B40004CA7DA018D919D910D90BC91A02D8B8F8A
:103B50009C8FAD8FBE8FBFE03B1318C0EB89EE2367
:103B600029F082E090E0A0E0B0E004C084E090E0C2
:103B7000A0E0B0E0AB8CBC8CCD8CDE8CA80EB91E66
:103B8000CA1EDB1EAB8EBC8ECD8EDE8EBB88BB20EC
:103B900061F0DF8CDD2049F02B8D3C8D4D8D5E8DED
:103BA0002C7F2B8F3C8F4D8F5E8F4BA15CA16DA125
:103BB0007EA1452B462B472B69F017FF0BC06F8565
:103BC000788977FF07C08FA1809580FB882480F8D3
:103BD000912C02C0812C912C1D86712F70717CABB1
:103BE0008B89882351F0E2E0AE2EB12CC12CD12C70
:103BF000ADAABEAACFAAD8AE08C024E030E040E00B
:103C000050E02DAB3EAB4FAB58AFDCA8DD2049F008
:103C100024E030E040E050E028AB39AB4AAB5BAB8E
:103C200008C04CEF5FEF6FEF7FEF48AB59AB6AAB6B
:103C30007BAB4B8C5C8C6D8C7E8C6F857889898995
:103C40009A898827992769AF7AAF8BAF9CAF712F7C
:103C5000707228967FAF2897C101825B9E4F239692
:103C60009FAF8EAF2397D101A05CBF4FBEAFADAF6A
:103C7000F101E057FF4F2196FFAFEEAF2197910181
:103C8000245B3F4F25963FAF2EAF2597A101485BA0
:103C90005F4F27965FAF4EAF27978D85803108F035
:103CA000F5C0DCA8D11004C07FE0E72EE81A8E2D05
:103CB000282F30E049AD5AAD6BAD7CAD082E04C065
:103CC00076956795579547950A94D2F740FFDAC0E5
:103CD000220F331F220F331FB101620F731FABA0DE
:103CE000BCA0CDA0DEA0AB28AC28AD2839F017FFD2
:103CF00050C0CF84D888D7FC4CC002C017FF2DC05D
:103D0000DFA0D11046C098EF980F953070F08D303D
:103D100029F427966EAD7FAD27973BC08E30C9F54D
:103D200025966EAD7FAD259734C0EDADFEAD80819B
:103D30009181A281B3818F719927AA27BB274197CF
:103D4000A105B10531F5B901605271092196AEACFA
:103D5000BFAC21976A0D7B1D1CC08F30D1F4F101DF
:103D600084AD95ADA6ADB7ADADA8BEA8CFA8D8AC73
:103D70008A0D9B1DAC1DBD1DBB88BB2019F0DF8CBF
:103D8000D1108C7F89839A83AB83BC83BE016F5F24
:103D90007F4F2896DFAC2897DD2041F028A939A96C
:103DA0004AA95BA9420E531E641E751EEE24E394BD
:103DB0008BA19CA1ADA1BEA1892B8A2B8B2B09F0D5
:103DC000E12C2396AEADBFAD2397ED91FC919E0102
:103DD000225F3F4F5901CBA404E0A3019201C1012E
:103DE0000995811142C00E8520E0B301A201C101F5
:103DF0000E94CD0489AD9AADABADBCAD0F2C04C013
:103E0000B695A795979587950A94D2F780FF0DC52B
:103E10003FE0F3121EC08B8D9C8DAD8DBE8D8E7FCD
:103E2000F10184AF95AFA6AFB7AFE05CFF4F8081E3
:103E30009181A281B3818F7D80839183A283B3839B
:103E4000AB8CA0FE02C00C946508BB8CB1FEEDC427
:103E500099C2CB8CDC8CED8CFE8CACA5BDA5CD9233
:103E6000DD92ED92FC921397E0C42896DFAC289780
:103E7000D11008C028A939A94AA95BA9420E531E2E
:103E8000641E751E8D858F5F8D8707CF16FF32C02C
:103E90003FE0F31228C0D301C2018E7FF10184AF4D
:103EA00095AFA6AFB7AFE05CFF4F80819181A28153
:103EB000B3818F7D80839183A283B38340FE06C04C
:103EC000806280839183A283B38314C041FE12C0B9
:103ED000F101E05BFE4F0190F081E02D6DEC71E0AF
:103EE000C101099507C0ACA5BDA54D925D926D922B
:103EF0007C9213978928A1F0F101EC5BFF4F1081B0
:103F0000E180F2800381612F6F71C1010E94310451
:103F1000F101E05CFF4F1083E182F282038385C4EC
:103F2000EF85F889F7FF81C417FD7FC4F10184ADE7
:103F300095ADA6ADB7ADE05CFF4F80FF10C0AC0102
:103F4000BD014E7FD101DC964D935D936D937C93C3
:103F5000DF9780819181A281B3810C946508808173
:103F60009181A281B3818F7D0C9466088F85988999
:103F7000A989BA89BB27AF84B888C988DA88C7FC01
:103F8000BF6FFB88FF2011F021E001C022E004C0D8
:103F9000880F991FAA1FBB1F2A95D2F71B891123CF
:103FA00029F004E010E020E030E004C008E010E078
:103FB00020E030E0ABA0BCA0CDA0DEA08A0D9B1D10
:103FC000AC1DBD1D800F911FA21FB31F0F85188947
:103FD00029893A890027112722273170442341F18A
:103FE000012B022B032B19F00296A11DB11DFB889A
:103FF000FF2031F052E0C52ED12CE12CF12C05C070
:1040000044E0C42ED12CE12CF12C0BA11CA12DA13C
:104010003EA1C00ED11EE21EF31EF101C0AED1AE14
:10402000E2AEF3AEEB8DFC8D208125FD25C023C0D3
:10403000012B022B032BD9F0FB88FF2031F032E05B
:10404000C32ED12CE12CF12C05C024E0C22ED12CA2
:10405000E12CF12C0BA11CA12DA13EA1C00ED11E63
:10406000E21EF31EF101C0AED1AEE2AEF3AEEB8DB7
:10407000FC8D208125FD8160AC01BD014E7FF101E9
:1040800044AF55AF66AF77AFEB8DFC8D408151816A
:10409000628173814F7D408351836283738380FF8C
:1040A00006C040624083518362837383BEC381FF35
:1040B000BCC368C14F84588869887A8855246624AF
:1040C000772439893F708F859889A989BA8988278B
:1040D0009927A072BB27AF84B888C988DA88D0FC3A
:1040E00010C0892B8A2B8B2B19F0132F106211C053
:1040F000CF84D888E988FA88132FE7FE1068106407
:1041000008C0132F892B8A2B8B2B11F4106101C04F
:104110001063212F207416FD15C002E0440C551CBD
:10412000661C771C0A95D1F76F85788989899A89E9
:1041300087FD08C07094609450944094411C511CB9
:10414000611C711C49865A866B867C8688898F70B3
:104150008E3028F0FBA4FF2009F4A6C211C0F101A3
:10416000E855FF4FC080D180E12CF12C082E04C00F
:10417000F694E794D794C7940A94D2F7C0FE1EC26F
:1041800090E017FF44C02AE0289FA001299F500D0E
:104190001124C101840F951FFC01E055FF4F0190D0
:1041A000F081E02D309709F409C24F85588969895B
:1041B0007A89ACE07695679557954795AA95D1F79A
:1041C000042F0F704F85588969897A89B4E07695F4
:1041D000679557954795BA95D1F7242F2F704F853E
:1041E000588969897A8914E1769567955795479535
:1041F0001A95D1F74170DC01AE54BF4F6D917C919F
:104200001F851F70C12EE32EC10109957EC14D8609
:10421000312F3F703B8FB101A4E03A9F600D711DBB
:10422000112478A76FA3DB01CD90DD90ED90FC9079
:104230003F3091F4BB89BB2331F0F2E08F2E912CFB
:10424000A12CB12C05C0E4E08E2E912CA12CB12C18
:10425000C80CD91CEA1CFB1CEB89EE2329F0FF8D4E
:10426000FF2311F00CEFC0224C0C5D1C6E1C7F1C58
:104270003AE0389FF001399FF00D1124E20DF31D53
:10428000E255FF4FA081B181109709F497C1222315
:1042900029F04E012DE0820E911C02C0812C912C40
:1042A00014FF04C05201562D78AA03C056015E2D9A
:1042B000F8AACF84D888E988FA883CE0F694E79495
:1042C000D794C7943A95D1F7CF8ED8A2E9A2FAA293
:1042D0000F8D0F700CA7CF84D888E988FA8864E125
:1042E000F694E794D794C7946A95D1F701E0C02675
:1042F000CF8ED8A2E9A2FAA20F8D0170CF84D88800
:10430000E988FA8876E1F694E794D794C7947A9589
:10431000D1F7CF8ED8A2E9A2FAA22F8D21703AE070
:10432000389FF001399FF00D1124E20DF31DEE547A
:10433000FF4F60817181C52ED8A8ECA4C101FD0199
:104340000995882309F43AC115FF6FC21B8D1F30F0
:1043500021F5D301C2018E7FF10184AF95AFA6AFE5
:10436000B7AFE05CFF4F80819181A281B3818F7DE7
:1043700080839183A283B38340FE02C00C946508BE
:1043800041FE53C2F101E05BFE4F0190F081E02D50
:104390006DEC71E0C101099548C2AFA1B8A54D927D
:1043A0005D926D927C92139740C288898F708E3097
:1043B00028F0FBA4FF2009F477C111C0F101E855F2
:1043C000FF4F0081118120E030E0082E04C03695B7
:1043D0002795179507950A94D2F700FFEFC090E054
:1043E0000F855AE0589F9001599F300D1124C1014B
:1043F000820F931FFC0104FF4CC0E655FF4F019054
:10440000F081E02D309709F4D9C00F8518892989EA
:104410003A89A5E03695279517950795AA95D1F77E
:10442000502F5770852E0F85188929893A89BCE04D
:104430003695279517950795BA95D1F7302F3F7088
:10444000CF84D888E988FA8815E1F694E794D79460
:10445000C7941A95D1F70C2D0770CF84D888E988B6
:10446000FA8824E1F694E794D794C7942A95D1F773
:104470002C2D2170DC01AE54BF4F6D917C918F8546
:104480008F70A82E99899F70C92EE32EC1010995BE
:104490003CC0E455FF4F0190F081E02D309709F4C6
:1044A0008DC00F85188929893A8955E03695279559
:1044B000179507955A95D1F7A02FA770AA2E0F85AB
:1044C000188929893A896CE03695279517950795BB
:1044D0006A95D1F70F70CF84D888E988FA8874E19B
:1044E000F694E794D794C7947A95D1F72C2D2F7032
:1044F000DC01AE54BF4F6D917C91BF85BF70CB2E58
:1045000019891F70E12EC1010995882309F456C04D
:104510008CC1411153C0AB8DBC8D4D905D906D90A1
:104520007C9053014201B0E48B22E3E98E2AFB88A0
:10453000FF2031F022E0C22ED12CE12CF12C05C05D
:1045400094E0C92ED12CE12CF12C0BA11CA12DA1A2
:104550003EA1C00ED11EE21EF31EF101E65BFE4F2E
:1045600080819181A281B3819C01AD01285F3F4F81
:104570004F4F5F4F2F87388B498B5A8B63E1C101B7
:104580000E943104AB8DBC8D8D929D92AD92BC92F8
:104590001397F101EC5BFF4F40825182628273827C
:1045A000F101C0AED1AEE2AEF3AEAF84B888C98837
:1045B000DA88A4AEB5AEC6AED7AE37C1AF84B88880
:1045C000C988DA880BEBA016B006C00607EFD00644
:1045D00009F06AC01BA5112309F466C0F101EE5A67
:1045E000FE4F0190F081E02D309709F45DC0C101CC
:1045F000099581111AC158C0B05884279527A6275C
:10460000B7274C255D256E257F25482359236A232E
:104610007B23442777FD43955527662777274B8FC4
:104620000C94221B84279527A627B7274C255D25A8
:104630006E257F2584239523A623B7238827B7FDDE
:1046400083959927AA27BB278B8F0C94221B88263A
:104650009926AA26BB268C259D25AE25BF25882216
:104660009922AA22BB228824B7FC83949924AA24E5
:10467000BB248B8E0C94221B1063892B8A2B8B2BD3
:1046800011F40C94870B0C94880B111183C0AA278A
:10469000BB27BA01552744273CE0CC0CDD1CEE1C9F
:1046A000FF1C3A95D1F785C08EED91E00E94F20291
:1046B0006F85788989899A890E9479038FEE91E0C4
:1046C0000E94F2026BA17CA18DA19EA10E947903A0
:1046D0008BEF91E00E94F2028101005C1F4FD80134
:1046E0006D917D918D919C910E94790385E592E079
:1046F0000E94F202F8014080518062807380D301F1
:10470000C20180749C01AD012B692F87388B498BC6
:104710005A8BFB88FF20C1F182E0C82ED12CE12CFE
:10472000F12C2BA13CA14DA15EA1C20ED31EE41E13
:10473000F51EF101E65BFE4F80809180A280B38080
:1047400034E0830E911CA11CB11C6BE1C1010E94DD
:1047500031044F85588969897A89D8014D935D93D1
:104760006D937C931397F101EC5BFF4F4082518274
:1047700062827382F101C0AED1AEE2AEF3AE84AE1E
:1047800095AEA6AEB7AE51C084E0C82ED12CE12CB8
:10479000F12CC7CF1F8D111116C0AA27BB271CE013
:1047A000CC0CDD1CEE1CFF1C1A95D1F7BA01552765
:1047B00044274C295D296E297F29842B952BA62B14
:1047C000B72B0C9466088C7FAA27BB27BA01552704
:1047D00044270CE0CC0CDD1CEE1CFF1C0A95D1F725
:1047E0004C295D296E297F29842B952BA62BB72B6D
:1047F0002F3011F00C9466083FCC1F8D1111E3CFC0
:10480000AA27BB272CE0CC0CDD1CEE1CFF1C2A9534
:10481000D1F7BA01552744274C295D296E297F29F4
:10482000842B952BA62BB72B27CC80E0C95BDF4FC1
:104830000FB6F894DEBF0FBECDBFDF91CF911F91B1
:104840000F91FF90EF90DF90CF90BF90AF909F902F
:104850008F907F906F905F904F903F902F90089532
:104860000F931F93603140F5FC016F30F9F4E05C69
:10487000FF4F408151816281738125E07695679574
:10488000579547952A95D1F7417055276627772781
:10489000FC0184AD95ADA6ADB7AD8A019B01080FB3
:1048A000191F2A1F3B1FC901B80119C014E0619FDD
:1048B000E00DF11D112405C0603141F4FC01E05C04
:1048C000FF4F608171818281938109C0613121F440
:1048D000FC01EC5BFF4FF5CF60E070E0CB011F9176
:1048E0000F910895CF92DF92EF92FF926F3071F5A2
:1048F00069017A01E894C0F8FC01C4AED5AEE6AE19
:10490000F7AEE05CFF4FC080D180E280F380E89496
:10491000C5F8C082D182E282F38220FF08C0B701CD
:10492000A6014062408351836283738319C021FFD3
:1049300017C0FC01E05BFE4F0190F081E02D6DECB3
:1049400071E0FF90EF90DF90CF900994FC0174E04C
:10495000679FE00DF11D112420833183428353832F
:10496000FF90EF90DF90CF9008954F925F926F92FB
:104970007F928F929F92AF92BF92CF92DF92EF92EF
:10498000FF920F931F93CF93DF93EC014A015B01DA
:104990002901370160E072E00E94F203FE01E05C51
:1049A000FF4F83ED90E0A0E0B0E080839183A2838D
:1049B000B383D501C4018E7F8CAF9DAFAEAFBFAFC7
:1049C000CE01805B9E4F7C0180FE09C083EF90E0AA
:1049D000A0E0B0E080839183A283B38309C081FE0D
:1049E00007C0DC01ED91FC916DEC71E0CE01099501
:1049F000FE01E25BFE4F51824082F701118300838A
:104A0000FE01EE5AFE4F718260823296D182C082E0
:104A1000A201BE01CE018A5A9E4F0E94373680E025
:104A2000DF91CF911F910F91FF90EF90DF90CF908A
:104A3000BF90AF909F908F907F906F905F904F90BE
:104A400008953F924F925F926F927F928F929F92C2
:104A5000AF92BF92CF92DF92EF92FF920F931F938C
:104A6000CF93DF93CDB7DEB72F970FB6F894DEBFA5
:104A70000FBECDBF4C01FC01EA55FF4F80819181F3
:104A80008401005C1F4F5801892BB1F0D801CD90F3
:104A9000DD90ED90FC90C6FC0FC0CC24B1EDCB2A8C
:104AA000EC55FF4F4080518062807380ECE14E0EE8
:104AB000511C611C711C1FC0F401EC55FF4F80811B
:104AC0009181892B09F454C0D501CD90DD90ED90F2
:104AD000FC90C7FC4DC0B0E4CB22E2E9CE2AF40141
:104AE000E65BFE4F4080518062807380F8E14F0E9C
:104AF000511C611C711CF40184AD95ADA6ADB7AD20
:104B00008C019D010C5F1F4F2F4F3F4F0887198766
:104B10002A873B87D5012D913D914D915C912C8742
:104B20003D874E875F876C2D6F71C4010E943104F1
:104B3000F501C082D182E282F382F401EC5BFF4F87
:104B40000C851D852E853F85008311832283338349
:104B5000288539854A855B85D401D8962D933D9368
:104B60004D935C93DB97F40144AE55AE66AE77AEE1
:104B7000D501CD90DD90ED90FC90F40144AC55ACA6
:104B800066AC77ACB701A6014F715527662777272A
:104B9000C4018A5A9E4FC5FE45C433243394403124
:104BA00051056105710509F4312C8E010B5F1F4F12
:104BB00068019E01295F3F4F7901032D22E0B30177
:104BC000A2010E947E36811105C00F8121E0B30150
:104BD000A20148C4D401DC96CD90DD90ED90FC900C
:104BE000DF97970186010E5F1F4F2F4F3F4FF40154
:104BF00004AF15AF26AF37AF8D819E81FC01EF2F3B
:104C0000FF27E295EF703197EF30F10508F0E9C327
:104C1000E657FF4F0C94F13BBC0167707727DC012E
:104C2000E6E0B695A795EA95E1F7AC0144275871FF
:104C300041155841F1F0762F66277295707FAC01CF
:104C400033E0569547953A95E1F747705527642B21
:104C5000752BAD0140765527462B572B880F991F92
:104C600080789F70482B592B60E070E0606B716E0C
:104C7000C5C391FD06C0C12CD12C00E9E02EF12C5A
:104C800005C0C12CD12C10E5E12EF12CFC01E873FC
:104C9000FF278F0120E030E0EDE0000F111F221F01
:104CA000331FEA95D1F7762F66277295707FAB0197
:104CB00060E070E0042B152B262B372BFD01E770ED
:104CC000FF27AF0160E070E0402B512B622B732B6C
:104CD0004C295D296E297F2992FD02C0706E8EC31A
:104CE000726E8CC36C01DD24E12CF12C00EEF02AF5
:104CF0009C01232F3327269526952695237033274D
:104D000088279770AC0164E0440F551F6A95E1F75E
:104D100060E070E023303105A1F0C42AD52AE62AEC
:104D2000F72A10E9E12A6894F1F8AC0160E070E03C
:104D3000762F652F542F44274C295D296E297F2912
:104D40005DC34C295D296E297F2960657260A0E0F2
:104D5000B0E0BA2FA92F982F8827AAC293FF14C0BA
:104D6000AC015527440F551F440F551F88279770D6
:104D7000B4E0880F991FBA95E1F7482B592B60E0F2
:104D800070E06F69756E32C29C01F3E0369527952D
:104D9000FA95E1F7682F677092FF9FC0AC0174E04D
:104DA000569547957A95E1F74870542F562B422F28
:104DB0004F70692F77276370772762307105E9F1AB
:104DC0006330710509F458C06130710551F1340147
:104DD00024E0529F600C711C1124F30180819181A9
:104DE000A281B3815F3019F40296A11DB11D940117
:104DF000F4E04F9F200D311D1124F901C080D180B6
:104E0000E280F3804F3029F4F2E0CF0ED11CE11C98
:104E1000F11C8C0D9D1DAE1DBF1D5F3009F03CC304
:104E20001EC0842F90E0A0E0B0E0A065B16E8C01C0
:104E30009D01252BB901A801E1C2F40114E0419FB5
:104E4000E00DF11D112480819181A281B3814F3049
:104E500019F40296A11DB11D5F3009F01FC38E7FAA
:104E6000F40184AF95AFA6AFB7AFF5018081918112
:104E7000A281B381806218C387FF0DC0B701A6016C
:104E80004D5F5F4F6F4F7F4FD401D8964D935D9329
:104E90006D937C93DB9788379744A9F4E4E0CE0EBA
:104EA000D11CE11CF11CFCEFCF22D401DC96CD9289
:104EB000DD92ED92FC92DF97F50180819181A281D4
:104EC000B3818F7DF1C2A9014F70552760E070E07A
:104ED00040615F6F6F62716E91C219821A821B828C
:104EE0001C826B8327702C8326E0969587952A95E4
:104EF000E1F78F70282F220F04E0809FF00111242A
:104F0000EF5DFE4F4081518162817381706E8FEA47
:104F10009EEBA3EFBFEF022E04C0B695A795979521
:104F200087950A94D2F783709927AA27BB27E1E0D7
:104F3000F0E0EC0FFD1FE80FF91F8081482B8AE09D
:104F400098E2AEEABAE2022E04C0B695A79597950C
:104F500087950A94D2F783709927AA27BB27E1E0A7
:104F6000F0E0EC0FFD1FE80FF91F80816A017B0163
:104F7000E82A8AEA9AEAA8E0B2EA022E04C0B695C4
:104F8000A795979587950A94D2F783709927AA27B2
:104F9000BB27E1E0F0E0EC0FFD1FE80FF91F4081B7
:104FA00050E060E070E03CE0440F551F661F771F43
:104FB0003A95D1F74C295D296E297F2980EF93EC32
:104FC000A0E0B8E004C0B695A795979587952A9577
:104FD000D2F783709927AA27BB27E1E0F0E0EC0F16
:104FE000FD1FE80FF91F8081582B08C2FC01EE0F4E
:104FF000EF2FEE1FFF0BF195EC71FF27EF5FFE4FD8
:10500000AC014873552760E070E0BDE0440F551FC8
:10501000661F771FBA95D1F7C080D180E280F380F8
:105020004C295D296E297F29706E9C0116E036950A
:1050300027951A95E1F72770332787709927982FBE
:1050400088279295907F822B932BA0E0B0E030C10F
:10505000AC0147705527542F44275295507F6A0161
:10506000E12CF12C9C0128733327A90160E070E04A
:105070003DE0440F551F661F771F3A95D1F74C2925
:105080005D296E297F296C01E4E0D694C794EA95E6
:10509000E1F71CE7C122DD24E12CF12C4C295D292C
:1050A0006E297F2993FD03C06068756EA7C1606992
:1050B000756EA4C1AC0147705527542F44275295F3
:1050C000507F6A01E12CF12C9C0128733327A90140
:1050D00060E070E01DE0440F551F661F771F1A95B2
:1050E000D1F74C295D296E297F296C0106E0D69401
:1050F000C7940A95E1F72FE1C222DD24E12CF12CBF
:105100004C295D296E297F2993FD03C0606C756E63
:1051100075C1606D756E72C1AC0147705527542F13
:1051200044275295507F6A01E12CF12C9C01287391
:105130003327A90160E070E0EDE0440F551F661FC2
:10514000771FEA95D1F74C295D296E297F296C01DB
:10515000F5E0D694C794FA95E1F73EE0C322DD244A
:10516000E12CF12C4C295D296E297F296C01D69404
:10517000C794CC24A3E0DA22E12CF12C4C295D2940
:105180006E297F2993FD04C0406B606C716E36C13F
:10519000406B606D716E32C1AC014427577024E0E2
:1051A000440F551F2A95E1F79C013327220F331F27
:1051B000220F331F422B532B60E070E093FD03C09E
:1051C0006D68756E1BC16D69756E18C1AC014427A1
:1051D000577004E0440F551F0A95E1F7482B60E033
:1051E00070E093FF05C05F606D68726E81E007C17B
:1051F0005F606F68726E02C19C0122273170AC0142
:105200004427567041155440F1F46C01DD24E12C23
:10521000F12CB701A6016D60706E93FF0AC0232BBD
:1052200029F0B701A60150686D60706E606B786000
:10523000E5C0232B29F0B701A60150646D60706EA4
:1052400060627960DBC0232B09F0D0C09C01232F62
:10525000332726952770332721153105B1F02730E4
:10526000310509F0C3C0AC01407F5527B4E0440FBD
:10527000551FBA95E1F78F709927482B592B60E09D
:1052800070E040676062716EB9C0AC014F7755271E
:1052900060E070E087FD05C080E090E0A0E8B0E04D
:1052A00004C080E090E0A0E4B0E05F6D6D60726EDD
:1052B000482B592B6A2B7B2BA1C0AC01442757707C
:1052C00060E070E0762F652F542F44276C01DD24B9
:1052D000E12CF12C4C295D296E297F2993FD03C017
:1052E0006068786E02C06069786E6C01E12CF12C08
:1052F000892F9927877099279701860104C03695D1
:105300002795179507958A95D2F700FD77C06062BB
:1053100075C0492F4F704E3009F476C06C01DD2402
:105320004F3029F4A60160E070E07F6E67C050E066
:1053300060E070E0ECE1440F551F661F771FEA95AF
:10534000D1F7E12CF12C4C295D296E297F2987FDAD
:1053500002C07A6053C05F6F6F6F7A604FC0AC015C
:10536000452F5527469546954695FA01E370FF2748
:10537000AC01577060E070E03397B9F092FF02C063
:10538000586F6F608CE0440F551F661F771F8A951A
:10539000D1F7400F511F621F731FD401D8964D9350
:1053A0005D936D937C93DB9783C0F40180AD91ADE9
:1053B000A2ADB3AD0296A11DB11D440F551F661FCE
:1053C000771F480F591F6A1F7B1F44AF55AF66AF49
:1053D00077AFB901A801416040AF51AF62AF73AF81
:1053E00067C040E050E060E070EE08C08B3BFBEB34
:1053F0009F0751F44BEB5BEB6BEB77EF80E0A82E54
:10540000C32CEE24E39442C0AC01407F94E0440FEF
:10541000551F9A95E1F7482B60E070E0406F606F90
:10542000776EECCF11E0403151056105710509F44B
:1054300010E09E012F5F3F4F6901AE014B5F5F4F50
:105440007A01012F24E0B301A2010E947E36D4012B
:10545000DC964D915D916D917C91DF97811106C035
:105460000D8121E0C4010E94CD0422C04C5F5F4F3A
:105470006F4F7F4FF40144AF55AF66AF77AF4981AF
:105480005A816B817C81A12CC12EE12C9301820178
:10549000C4010E9499050CC0F30106C0F40104E0A8
:1054A000509FE00DF11D112480839183A283B3836B
:1054B0002F960FB6F894DEBF0FBECDBFDF91CF9110
:1054C0001F910F91FF90EF90DF90CF90BF90AF9022
:1054D0009F908F907F906F905F904F903F90089536
:1054E000FC01662391F0EA55FF4F411112C0208163
:1054F000318121153105C1F4FC01E05BFE4F0190C3
:10550000F081E02D65E072E01CC0EC55FF4F4423B4
:1055100031F080819181019691838083089520816B
:1055200031812115310529F0215031093183208342
:105530000895FC01E05BFE4F0190F081E02D60E1F9
:1055400072E009948A5A9E4F0C941E368A5A9E4FD6
:105550000C943E362AE0629F800D911D1124DC01DF
:10556000A655BF4F8AE0FA0101900D928A95E1F7A6
:105570000895865B9E4FFC01408351836283738351
:10558000089588559F4FFC01808191810895885529
:105590009F4FFC01718360830895FC0135969C0147
:1055A000275F3F4FDC0155961D921D921D921C9264
:1055B000589792961D921D921D921C929597148257
:1055C00011924A96E217F30769F70895EF92FF9256
:1055D0000F931F93CF93DF93EC017B018A016DE75B
:1055E00070E00E94F203FE01E758FF4FF182E08273
:1055F0003296118300838FEF9FEFDC0188839983BC
:10560000AA83BB8336971082118212821382CE0145
:10561000DF91CF911F910F91FF90EF900C94CD2AC5
:105620002F923F924F925F926F927F928F929F92B2
:10563000AF92BF92CF92DF92EF92FF920F931F93A0
:10564000CF93DF93CDB7DEB762970FB6F894DEBF86
:105650000FBECDBF1C014A015B01FA8AE98ADE86D2
:10566000CD86DC014D915D916D917C914F3FBFEFF7
:105670005B076B077B0709F463C285017401FAE0DD
:1056800016950795F794E794FA95D1F7ED82FE8287
:105690000F831887D501C40114E1B695A795979596
:1056A00087951A95D1F795018401EFE036952795F6
:1056B00017950795EA95D1F780279127A227B32759
:1056C000ED80FE800F8118858E259F25A027B127AC
:1056D0008370082F10E0188B0F87D801A20DB31D1F
:1056E00015968C91159702E09DE0EAE1EF84F88829
:1056F000EE9D9001EF9D300D11248F3F09F481E064
:10570000F901989FE00DF11D1124E20DF31DC188F0
:10571000D288E388F4888C149D04AE04BF04C8F0DA
:10572000458856886788708C4C0C5D1C6E1C7F1CED
:1057300084149504A604B70460F4458456846784F1
:105740007088118D169516951F7015968C9350E0E4
:10575000CBC18150015089F6DB01CA0183709927C2
:10576000AA27BB27892B8A2B8B2B11F081E04FC0F6
:1057700075016401CC24DD24B0EFEB22D701C60112
:10578000E2E1B695A79597958795EA95D1F79A01A5
:10579000AB01280F391F4A1F5B1FF101E758FF4F6C
:1057A0000190F081E02DBE016F5F7F4FD101A558C0
:1057B000BF4F8D919C910995811105C08CE0ED85BD
:1057C000FE858083D2C149815A816B817C81DB0156
:1057D000CA0135E0B695A795979587953A95D1F783
:1057E000182F1F70DB01CA0183709927AA27BB27D6
:1057F00082309105A105B10541F183309105A105E4
:10580000B105C1F10197A105B10529F085E0AD858C
:10581000BE858C93AAC1D501C4018827907FAF7043
:10582000BB272AE0B695A795979587952A95D1F736
:1058300044275C7F480F591F6A1F7B1F49835A8387
:105840006B837C83FF24F3942AC02A013B01442408
:105850005524B0EF6B22FAE07695679557954795FA
:10586000FA95D1F7E42FE37051E060E070E080E159
:1058700090E0B2C0D501C40188279C7FAF70BB27E0
:10588000892F9A2FAB2FBB274427507F480F591FD2
:105890006A1F7B1F49835A836B837C83F12C298188
:1058A0003A814B815C81F101E758FF4F0190F08113
:1058B000E02DBE016F5F7F4FD101A558BF4F8D9185
:1058C0009C910995212F30E081110AC054E0220FEC
:1058D000331F5A95E1F72E60AD85BE852C932EC1FE
:1058E00049815A816B817C81DB01CA0183709927D0
:1058F000AA27BB2782309105A105B10561F183304C
:105900009105A105B10549F10197A105B10551F036
:1059100044E0220F331F4A95E1F72760ED85FE85AD
:10592000208323C12A013B014424552475016401CD
:10593000CC24DD24D501C4012EE0B695A79597951A
:1059400087952A95D1F7E82FE37020E080E090E07A
:10595000A1E0B0E015C020E003C0FF2029F121E064
:105960002A013B01442490EF592275016401CC24A3
:10597000A0EFDA22ED81E37080E090E1A0E0B0E0FA
:105980008D839E83AF83B887DB01CA0104E0B6959F
:10599000A795979587950A95D1F789879A87AB87B9
:1059A000BC8721112FC01DC02A013B0144249CEF5C
:1059B000592275016401CC24ACEFDA2284E076959B
:1059C0006795579547958A95D1F7E42FE37050E096
:1059D00060E074E080E090E06D837E838F83988741
:1059E0003FC0282F2F7030E0898582958F7090E01E
:1059F0002817390751F489858695869599858927D1
:105A0000837019F4E985E3702AC0F0E03296EE0F56
:105A1000FF1F04C07695679557954795EA95D2F78D
:105A2000E42FE3706D817E818F819885B2E0969539
:105A3000879577956795BA95D1F76D837E838F8328
:105A40009887AE2FB0E09B01AC010E94F73B460E59
:105A5000571E681E791EC60ED71EE81EF91E50E09E
:105A60002F853889220D331DD90119960C919AE1A1
:105A70006F857889969FD001979FB00D11247DE0A6
:105A8000079FA00DB11D1124A20DB31D1D964D92AF
:105A90005D926D927C9250976D817E818F81988509
:105AA00055966D937D938D939C9358975196CD9277
:105AB000DD92ED92FC92549759964C915997407C07
:105AC000E42B412F440F440FE42B5996EC93D9015A
:105AD00015960C93159781E0800F823019F0199676
